:1000000000308A0019280000213084008313000882
:10001000031918280130F800F701F70B0D28F80B29
:100020000C284A30F700F70B13281628800B0A28F3
:10003000080003081F398300673083169900A23037
:10004000980090308312980083161F149F141F1578
:100050009F118313FF3086008312061C3E28553003
:100060000C1E3028990058300C1E34289900573047
:100070000C1E382899000A30A1000420861C4F2845
:1000800055300C1E4128990058300C1E4528990007
:1000900053300C1E492899000A30A1000420061D87
:1000A000602855300C1E5228990058300C1E5628D6
:1000B000990044300C1E5A2899000A30A1000420EF
:1000C000861D712855300C1E6328990058300C1E6F
:1000D0006728990041300C1E6B2899000A30A10056
:1000E0000420061E822855300C1E742899005830B2
:1000F0000C1E7828990053300C1E7C2899000A3079
:10010000A1000420861E932855300C1E85289900D6
:1001100058300C1E8928990052300C1E8D289900E9
:100120000A30A1000420061FA42855300C1E962872
:10013000990058300C1E9A2899004C300C1E9E28AD
:1001400099000A30A1000420861FB52855300C1EE6
:10015000A728990058300C1EAB28990046300C1E79
:10016000AF2899000A30A100042083162A286300D2
:02400E00393B3C
:00000001FF
;PIC16F877
;CRC=C687  CREATED="24-Haz-18 17:01"
